:1000000045C0000058C0000056C0000054C00000A9
:1000100052C0000050C000004EC000004CC00000A4
:100020004AC0000048C0000046C0000044C00000B4
:1000300042C0000040C000003EC000003CC00000C4
:100040003AC0000038C0000036C0000034C00000D4
:1000500032C0000030C000002EC000002CC00000E4
:100060002AC0000028C0000026C0000024C00000F4
:1000700022C0000020C000001EC000001CC0000004
:100080001AC0000018C0000016C0000011241FBED6
:10009000CFEFD0E1DEBFCDBF11E0A0E0B1E0E2E9FB
:1000A000F2E000E00BBF02C007900D92A834B10748
:1000B000D9F760D0ECC0A4CFE5E6F0E090819D7F59
:1000C000908390819E7F908382BB808184608083B7
:1000D0008FE99FE00197F1F700C0000080818B7FDE
:1000E000808308958FEF81BB8093640012BA1092D1
:1000F00065008FE99FE00197F1F700C0000088E3F9
:10010000DBDF8CE0D9DF86E0D7DF81E0D5DF80E080
:10011000D3CF0895E5E6F0E090819D7F90839081B4
:100120009160908382BB8081846080838FE99FE0AF
:100130000197F1F700C0000080818B7F80830895D4
:10014000623008F061E0803108F08FE0611102C098
:10015000805801C08054B0CF0895CF93DF93EA0157
:10016000EFDF8881882319F0D5DF2196FACFDF9160
:10017000CF910895CF93DF93CDB7DEB7A8970FB691
:10018000F894DEBF0FBECDBFADDF8EE0E0E0F1E062
:10019000DE01119601900D928A95E1F78AE1EEE079
:1001A000F1E0DE011F9601900D928A95E1F760E083
:1001B00081E0C6DF82E3AEDF80E3ACDF82E3AADF6B
:1001C00087E3A8DF48E251E060E086E0C6DF60E058
:1001D0008AE0B6DF83E39EDF80E39CDF21E030E04E
:1001E00083EF99E02C30310584F4F901EE0FFF1F05
:1001F00041E050E04C0F5D1FE40FF51F4685578529
:10020000840F951F2F5F3F4FEDCF67E070E018D050
:10021000FC01EE0FFF1F81E090E08C0F9D1FE80FA7
:10022000F91F4081518160E08DE097DF9FEF27EA61
:1002300041E6915020404040E1F700C00000B7CFB8
:1002400097FB072E16F4009406D077FD08D00BD04C
:1002500007FC05D03EF4909581959F4F08957095C9
:1002600061957F4F0895AA1BBB1B51E107C0AA1FD0
:10027000BB1FA617B70710F0A61BB70B881F991F47
:100280005A95A9F780959095BC01CD010895F894F1
:02029000FFCF9E
:100292002C013001340138013C01400144010000CD
:1002A2001F001C001F001E001F001E001F001F0059
:1002B2001E001F001E001F004445430053554E0000
:1002C2004D4F4E0054554500574544005448550083
:0802D20046524900534154005B
:00000001FF
